:020000040800F2
:100000000808002089010008ED1C00086D18000890
:10001000E91C0008F90200086D200008000000003B
:100020000000000000000000000000004D1D00085E
:100030000D030008000000001D1D0008811D0008C0
:10004000A3010008A3010008A3010008A301000800
:10005000A3010008A3010008A3010008A3010008F0
:10006000A3010008A3010008A3010008FD02000885
:10007000A3010008A3010008A3010008A3010008D0
:10008000A3010008A301000891020008A3010008D1
:10009000A3010008A3010008A3010008A3010008B0
:1000A000A3010008A3010008A3010008A3010008A0
:1000B000051E0008151E0008251E0008A3010008E3
:1000C000A3010008A3010008A3010008A301000880
:1000D000A3010008A3010008A3010008A301000870
:1000E000A3010008A3010008A301000800F002F822
:1000F00000F03AF80AA090E8000C82448344AAF188
:100100000107DA4501D100F02FF8AFF2090EBAE885
:100110000F0013F0010F18BFFB1A43F0010318473B
:10012000F420000014210000103A24BF78C878C1E0
:10013000FAD8520724BF30C830C144BF04680C60ED
:10014000704700000023002400250026103A28BF35
:1001500078C1FBD8520728BF30C148BF0B60704739
:100160001FB51FBD10B510BD00F058F81146FFF7C0
:10017000F7FF01F0EFFF00F076F803B4FFF7F2FFAE
:1001800003BC00F07DF8000009488047094800479B
:10019000FEE7FEE7FEE7FEE7FEE7FEE7FEE7FEE737
:1001A000FEE7FEE704480549054A064B7047000094
:1001B000011E0008ED0000080802002008080020C9
:1001C00008040020080400204FF0000200B5134688
:1001D00094469646203922BFA0E80C50A0E80C5067
:1001E000B1F12001BFF4F7AF090728BFA0E80C5018
:1001F00048BF0CC05DF804EB890028BF40F8042B11
:1002000008BF704748BF20F8022B11F0804F18BF7D
:1002100000F8012B7047704770477047754600F033
:100220002BF8AE4605006946534620F00700854688
:1002300018B020B5FFF7B6FFBDE820404FF000062C
:100240004FF000074FF000084FF0000BAC46ACE851
:10025000C009ACE8C009ACE8C009ACE8C00921F0AD
:1002600007018D46704710B50446AFF30080204665
:10027000BDE81040FFF781BF004870471000002024
:1002800001491820ABBEFEE72600020070470000BF
:1002900080B540F27000C2F2000000F0CBF880BDE3
:1002A000B0B5044600688168C90709D0816821F0AB
:1002B0000101816000F04EFC21688968C90701D105
:1002C0000020B0BD054603E020688068C007F7D075
:1002D00000F040FC401B0328F6D320688068C0076C
:1002E000F2D0A06A40F01000A062E06A40F0010085
:1002F000E0620120B0BD0000FEE7000080B540F2E2
:10030000A000C2F2000000F009FA80BD70470000B2
:10031000EFF3108072B600BFFEE7000070470000E8
:10032000B0B581B00022009290F82420012A01D1BA
:10033000022179E04A680123062A80F8243005D892
:1003400003686FF0040C03F1340E0AE003680C2A12
:1003500087BF03F12C0E6FF0400C03F1300E6FF0ED
:10036000220C02EB8202DEF8005062441F230C686C
:10037000934025EA030304FA02F21A43CEF8002060
:10038000D1F800E002680EEB4E051024BEF1090F13
:1003900088BF1E3D88BF0C2452F804C0072389681B
:1003A000AB402CEA0303A940194311512EF001017F
:1003B0004FF0000C10294FF0000133D1016842F2D8
:1003C0000042C4F20102914205D0816A41F020014D
:1003D0008162012126E09268120222D48A68BEF16D
:1003E000100F42F400028A601BD140F20001C2F2F9
:1003F000000109684DF68362C4F21B32A1FB0212B0
:10040000910C01EB810149000091009949B100BFB5
:10041000009901390091009900294FF00001F7D1AE
:1004200000E0002180F824C0084601B0B0BD000003
:100430007047000070B50446006806684568B1075B
:1004400027D515F0200124D0A16AC90603D4A16ADA
:1004500041F40071A162816801F46021B1F5602F5F
:1004600010D1217B71B9416821F020014160A06A5F
:1004700020F48070A062A06AC00403D4A06A40F097
:100480000100A0622046FFF7D3FF20686FF0120141
:100490000160700733D515F0800030D0A06AC00627
:1004A00003D4A06A40F40050A0622068816801F47F
:1004B000E041B1F5E04F0FD1416821F0800141608A
:1004C000A06A20F48050A062A06AC00510D4A06A7F
:1004D00040F00100A0620BE04168490508D4816842
:1004E00001F46021B1F5602F02D1217B0029E3D016
:1004F0002046FFF713FF20686FF00C010160F00742
:1005000018BF15F0400000D170BDA06A40F48030E3
:10051000A062204600F092F820686FF001010160AF
:1005200070BD0000002804BF01207047F0B581B005
:100530000746044657F8280F30B90020E06284F8D7
:100540002400204600F07CF82046FFF7A9FEA26AAE
:10055000A16A002808BF12F0100205D041F0100176
:100560000120396001B0F0BD41F202129143023125
:10057000A162E169D4E9013241EA0305511EB1FAF1
:1005800081F149091346B2F5807F18BF0B02267D21
:10059000217B012E45EA410C11D141B1A16A41F004
:1005A0002001A162E16A41F00101E16207E0A16975
:1005B0004EF60006CFF6FF7606EB41310B4321687D
:1005C000B2F5807F4E6826F4694643EA06034B6025
:1005D0008B684FF2FD76CFF6E17603EA060343EA35
:1005E0000C038B6001D0012A06D122690023CFF6CB
:1005F000F07303EB025200E00022CB6A23F4700395
:100600001A43CA62896840F6FE62CFF61F72114033
:10061000614506D10021E162A16A012262F3010174
:100620009FE7A06A40F0100020F00200A06254F89A
:100630002C0F40F001010120274692E7704700008F
:100640002DE9F04186B040F600050446C4F20105EC
:10065000006805F5E051002788420597CDE903774A
:10066000029702D006B0BDE8F08141F21800C4F252
:10067000020001680DF1080841F400710160016891
:10068000032601F4007101910199016841F0040110
:100690000160016801F0040101910199016841F0D4
:1006A000080101600068414600F0080001900198CF
:1006B000FE2002902846039600F048F90120CDE97B
:1006C000020605F58060414600F040F940F2A005C1
:1006D0000820C2F20005C4F202004FF48072C5E99E
:1006E000000705F1100080214FF480632026CCC064
:1006F0002846C5E9027100F0D1F8002818BFFFF7BD
:1007000007FE12200021002225626C6200F098FA98
:10071000122000F091FA06B0BDE8F08110B5016832
:10072000D0E90FCEDCF800200B685C0726D5042446
:1007300004FA0EF4144021D00A68920603D40A6821
:1007400022F004020A602F22C4F20202914240F217
:100750000402C4F2020259DD3023C4F202039942BA
:100760006CD04423C4F2020399426AD05823C4F2E5
:10077000020399426AD14FF480236FE09C0729D588
:10078000022404FA0EF4144024D00A68920606D417
:100790000A6822F00A020A60012280F821202F2232
:1007A000C4F20202914240F20402C4F2020239DDB4
:1007B0003023C4F20203994256D04423C4F2020308
:1007C000994254D05823C4F20203994254D14FF4B1
:1007D000003359E01B0758BF10BD082303FA0EF37E
:1007E0001A4012D00A6822F00E020A60012101FAB2
:1007F0000EF2CCF80420816380F82110016B0022F6
:10080000002980F8202018BF884710BD0823C4F2B3
:100810000203994218D01C23C4F20203994215D155
:1008200040231BE00823C4F20203994222D01C2378
:10083000C4F2020399421FD1202325E04FF48063C4
:100840000CE04FF4804309E0042307E002F1680460
:100850004FF08063A14208BF4FF480031360C16A68
:100860000029D2D0884710BD4FF400730CE04FF43C
:10087000005309E0022307E002F168044FF000731F
:10088000A14208BF4FF400131360816A00220029BF
:1008900080F82020B9D0884710BD0000014600280C
:1008A0004FF0010008BF70472DE9F043D1F800C0B8
:1008B0004FF6F873CBF6FD734CF6CD426344CCF69D
:1008C000CC42A3FB02236FF0030707EA9303002740
:1008D000C4F2020701F10C09C1E90F730223D1E947
:1008E000012E99E87002D1F81C8081F82130DCF8E3
:1008F000003043F6F077BB431A4342EA0E0222432C
:100900002A43324342EA090242EA0802CCF80020B4
:1009100000228A6381F8210081F820200020BDE8B0
:10092000F0437047B0B5044600F014F9054640F2B4
:100930000400C2F200000078611C18BF044400BF2C
:1009400000F008F9401BA042FAD3B0BD2DE9F04FEA
:1009500082B00E68002E00F0F38041F20042C4F233
:100960000102042340F2004E904208BF03234FF6D9
:10097000FF7CC4F2010E009300240123C1F2100C8D
:100980004FF0000A4FF0000941E0012504F00C038C
:100990000F279F402BEA070705FA03F33B4342F872
:1009A00026304E6840F20C45F202DEF8082054BFB3
:1009B00022EA080242EA0802C4F20105CEF8082041
:1009C0002A68B30254BF22EA080242EA08022A60F7
:1009D000B303DEF8042054BF22EA080242EA080208
:1009E000F303CEF80420DEF800204FF0010354BFDB
:1009F00022EA080242EA0802CEF800200E680AF154
:100A0000010A36FA0AF204F1040400F0998003FAAC
:100A10000AFB16EA0B08F1D04A68624510DC122A7C
:100A200050D8DFE802F0330A41454F4F4F4F4F4F48
:100A30004F4F4F4F4F4F4F484C00D1F80C9041E073
:100A40004FF6FF75C1F22105AA420FDC0025C1F265
:100A50001105AA421AD00025C1F21205AA4215D0EA
:100A60000025C1F22105AA4210D02BE00025C1F2D9
:100A70002205AA420AD00025C1F23105AA4205D0BA
:100A80000025C1F23205AA421CD100BF8A6842B1DA
:100A9000012A14BFC0F814B0C0F810B04FF0080914
:100AA00010E04FF004090DE0CA6802F1080909E0FE
:100AB0004FF0000906E0CA6802F1040902E0CA68C2
:100AC00002F10C0922460546B8F5807F24BF203A82
:100AD00004352E680F279740BE4309FA02F23243CD
:100AE0002A60CA79D2067FF589AF41F21803C4F2B1
:100AF00002031A684FEA9A0642F001021A601A6865
:100B000040F6000302F001020192019AAEF57E72F6
:100B100052F826B0C4F2010398420FD040F60043C9
:100B2000C4F2010398423FF430AF41F20003C4F233
:100B30000103009D984208BF022527E7002525E70D
:100B400002B0BDE8F08F0000002A08BF090401616F
:100B50007047000040F20420C2F2000000687047B5
:100B600040F2040040F20421C2F20000C2F200018F
:100B700000780A68104408607047000080B542F2AF
:100B80000000C4F20200016841F01001016003207E
:100B900000F066F80F2000F005F800F02BF80020B8
:100BA00080BD0000B0B540F20402C2F2000240F283
:100BB00000011278C2F200014FF47A730968B3FBA6
:100BC000F2F20446B1FBF2F1084600F041FB0F2CB3
:100BD0004FF001050CD858B94FF0FF3021460022E4
:100BE000002500F02DF840F20800C2F20000046079
:100BF0002846B0BD82B041F21800C4F2020001687C
:100C0000022241F001010160016801F0010101913E
:100C10000199416841F080514160406800F0805086
:100C2000009000980420C4F20100016862F31A6188
:100C3000016002B07047000080B501F019FA80BD74
:100C400070B514460D46064601F022FA29462246A2
:100C500001F04EF80146304601F022FA70BD000066
:100C600080B501F02FFA80BD2DE9F04182B0044635
:100C7000007841F21C06C007C4F202064AD0306870
:100C800010F0805808D1306840F0805030603068F3
:100C900000F080500190019847F20007C4F200076D
:100CA0003868C00512D4386840F480703860FFF7A7
:100CB00051FF05463868C00508D4FFF74BFF401BBD
:100CC0006428F7D9032002B0BDE8F081706810F401
:100CD000407012D0616801F4407188420DD0706894
:100CE00040F24042C4F24222012320F440711360DA
:100CF0000023C0071360716029D17068616820F417
:100D000040700843B8F1000F706003D1306820F0E4
:100D1000805030602068810707D556F8181CA268FB
:100D200021F44041114346F8181CC00603D40020AA
:100D300002B0BDE8F08156F8180CE16820F480009C
:100D4000084346F8180C002002B0BDE8F081FFF718
:100D500001FF054641F2883770688007CDD4FFF760
:100D6000F9FE401BB8424FF00300F5D9ECE7000054
:100D70002DE9F04381B0002800F0898042F200089C
:100D8000C4F202080446D8F800000D4600F007003F
:100D900088420CD2D8F8000020F007002843C8F899
:100DA0000000D8F8000000F00700A8426FD12068CA
:100DB00041F204098107C4F2020917D5410705D59C
:100DC000D9F8001041F4E061C9F80010010705D519
:100DD000D9F8001041F46051C9F80010D9F800109A
:100DE000A26821F0F0011143C9F80010C00745D1F5
:100DF000D8F8000000F00700A8420CD9D8F800008D
:100E000020F007002843C8F80000D8F8000000F0E0
:100E10000700A8423BD12068410707D5D9F8001048
:100E2000E26821F4E0611143C9F80010000708D519
:100E3000D9F80000216920F4605040EAC100C9F8E7
:100E4000000000F04FF8D9F8001042F20422C1F37C
:100E50000311C0F60002515C40F2000220FA01F1D9
:100E600040F20800C2F200000068C2F20002116005
:100E7000FFF798FE002001B0BDE8F083606802280B
:100E800009D0012829D159F8041C890307D401206D
:100E900001B0BDE8F08359F8041C8901F7D5D9F8F1
:100EA000001021F003010843C9F80000FFF752FECB
:100EB000064641F2883700BFD9F80000616800F0AB
:100EC0000C00B0EB810F93D0FFF744FE801BB842BB
:100ED000F2D9032001B0BDE8F08359F8041C89075A
:100EE000D5D5DCE741F2040CC4F2020CDCF800308A
:100EF00003F00C00082841F20020C0F27A0018BF6D
:100F00007047C3F383420AA18A5CD90305D440F633
:100F10000010C0F23D0050437047DCF8001008A3F9
:100F2000C1F34041595C5043B0FBF1F0704700BF42
:100F300002030405060708090A0B0C0D0E0F10101A
:100F4000010200002DE9F04182B0002800F0C480C9
:100F50000446007841F20006C007C4F2020643D0FE
:100F6000706800F00C00042817D0706800F00C00C6
:100F7000082802D17068C0030FD465682DB1B5F59B
:100F8000A02F10D0B5F5803F11D0306820F480300C
:100F90003060306820F480200CE03068800323D576
:100FA000606808BB98E0306840F4802030603068AA
:100FB00040F480303060FFF7CDFD002D054610D0A5
:100FC0003068800310D4FFF7C5FD401B6428F7D9B3
:100FD00004E100BFFFF7BEFD401B64284FF0030093
:100FE00077D830688003F5D42078800718D57068EA
:100FF00010F00C0F07D0706800F00C00082826D104
:101000007068C00323D43068800702D520690128A6
:1010100062D13068616920F0F80040EAC1003060B8
:10102000207800073DD5A06938B30020C4F24220E3
:101030000121C0F88014FFF78DFD0546706A800716
:101040002DD4FFF787FD401B0228F7D9C6E02069A1
:10105000002840F20000C4F2422000F096800121F6
:101060000160FFF777FD054630688007D1D4FFF7B0
:1010700071FD401B0228F7D9B0E00020C4F24220E5
:101080000021C0F88014FFF765FD0546706A8007EF
:1010900007D5FFF75FFD401B0228F7D99EE000F05F
:1010A0003FFE207840071BD4E5698DB1706800F0E1
:1010B0000C00082847D1012D0ED07068216A00F479
:1010C00080328A4208D1616A00F47010884203D1EC
:1010D000002002B0BDE8F081012002B0BDE8F0813F
:1010E000F06910F0805808D1F06940F08050F0614C
:1010F000F06900F080500190019847F20007C4F2B7
:1011000000073868C00510D4386840F48070386033
:10111000FFF720FD054600BF3868C00505D4FFF77E
:1011200019FD401B6428F7D958E0E5681DB1052D6D
:101130003CD0012D3ED0306A20F001003062306A90
:1011400020F0040039E00027C4F24227002038666E
:10115000FFF700FD022D05460CD100BF306880016D
:1011600054D5FFF7F7FC401B02284FF00300F5D9D8
:10117000AFE700BF30688001AAD5FFF7EBFC401B4A
:1011800002284FF00300F5D9A3E700210160FFF723
:10119000E1FC0546306880077FF542AFFFF7DAFCD7
:1011A000401B02284FF00300F4D992E7306A40F068
:1011B00004003062306A40F001003062FFF7CAFC80
:1011C000002D054641F2883714D000BF306A8007F1
:1011D00013D4FFF7BFFC401BB842F7D9032002B07D
:1011E000BDE8F081FFF7B6FC401BB8424FF00300AA
:1011F0003FF66FAF306A8007F4D4B8F1000F7FF488
:1012000053AFF06920F08050F0614DE7206AB0F5EF
:10121000803F05D17168A26821F4003111437160EB
:101220007168626A21F474111043084370600120F0
:101230003866FFF78FFC0446306880013FF548AF01
:10124000FFF788FC001B02284FF00300F4D940E7A9
:1012500080B500F07DFD80BD704700007047000044
:10126000B0B590F83C20012A04BF0220B0BD01F1C6
:1012700008053CCDD1E900CE23F47C5322F4705212
:101280001A432EF4F0431A432CF4E0431A4324F497
:10129000C0431A432A43C96922F4804203681143B8
:1012A0005964002180F83C100846B0BD10B590F894
:1012B0003C20012A4FF0020231D0012380F83C305B
:1012C00080F83D200268D2F804E0D2F808C00C682B
:1012D0002EF07003234340F2FF74C4F20004A242D4
:1012E000536005DCB2F1804F0ED040F2004307E0BE
:1012F00042F60043C4F201039A4205D040F60003CF
:10130000C4F200039A4204D149682CF080031943C7
:1013100091600121002280F83D1080F83C201046A9
:1013200010BD000090F83D1001291CBF012070473E
:10133000022180F83D10006840F2FF72C168C4F2DB
:101340000002904241F00101C16005DCB0F1804F24
:101350000ED040F2004107E042F60041C4F2010124
:10136000884205D040F60001C4F20001884206D14F
:10137000816801F00701062904BF00207047016859
:1013800041F001010160002070470000704700003B
:10139000B0B504460068C168026902EA0105A90700
:1013A0001DD4680731D4280747D4E8065CD4E80781
:1013B00073D128067BD4680606D520686FF04001FB
:1013C0000161204600F050FAA80658BFB0BD206861
:1013D0006FF0200101612046FFF740FFB0BD6FF0C4
:1013E00002010161012121778069800703D0204635
:1013F000FFF7CCFF05E0204600F0B8F8204600F0EB
:10140000D3F9002020776807CDD520686FF004015C
:10141000016102212177806910F4407F03D02046CA
:10142000FFF7B4FF05E0204600F0A0F8204600F0EA
:10143000BBF9002020772807B7D520686FF0080196
:10144000016104212177C069800703D02046FFF79E
:101450009DFF05E0204600F089F8204600F0A4F941
:1014600000202077E806A2D520686FF01001016106
:1014700008212177C06910F4407F03D02046FFF790
:1014800085FF05E0204600F071F8204600F08CF959
:1014900000202077E8073FF48CAF20686FF001014F
:1014A0000161204600F0DEF928067FF584AF206850
:1014B0006FF0800101612046FFF7CEFE68067FF5E0
:1014C00083AF7AE780B586B0014640F60000C4F2EB
:1014D0000100096800F5105291424FF00001CDE97A
:1014E0000411CDE9021101D006B080BD41F218010E
:1014F000C4F202010A6842F004020A60096801F0BD
:101500000401019101994FF470610291022103914C
:10151000059102A9FFF71AFA06B080BD10B504467E
:1015200090F83C00012804BF022010BD4FEAB2022F
:101530000120032A84F83C0013D8DFE802F00206F9
:101540000A0E206800F0D6FC0AE0206800F002FDD8
:1015500006E0206800F032FD02E0206800F060FD47
:101560000020002184F83C1010BD000070470000EE
:10157000002804BF0120704710B5044690F83D00D4
:1015800028B9002084F83C00204600F01FF8022013
:1015900084F83D002068211D00F04CFC012084F8F7
:1015A000460084F83E0084F83F0084F8400084F848
:1015B000410084F8420084F8430084F8440084F831
:1015C000450084F83D00002010BD000080B582B0C9
:1015D000006840F60001C4F20001884201D002B068
:1015E00080BD41F21C00C4F202000168002241F0FB
:1015F000040101600068002100F0040001900198DE
:101600001E20FFF71DFB1E20FFF716FB02B080BD5A
:10161000B0B5044690F83C00012804BF0220B0BDDC
:101620000D464FEAB2010120032984F83C0037D867
:10163000DFE801F0020A12222068294600F05AFC75
:10164000206850F8181F0EE02068294600F082FC40
:10165000206850F8181F16E02068294600F0AEFCFC
:10166000206850F81C1F41F008010160016821F05A
:101670000401016029690FE02068294600F0D0FCD0
:10168000206850F81C1F41F400610160016821F4DA
:10169000806101602969090202681143016000202C
:1016A000002184F83C10B0BD002804BF0120704721
:1016B00010B5044690F83D0028B9002084F83C009D
:1016C000204600F01FF8022084F83D002068211D0C
:1016D00000F0B0FB012084F8460084F83E0084F856
:1016E0003F0084F8400084F8410084F8420084F808
:1016F000430084F8440084F8450084F83D0000204D
:1017000010BD000080B584B00068B0F1804F1DD0DE
:1017100040F20041C4F2000188422ED042F600415E
:10172000C4F2010188423DD141F21C00C4F2020022
:1017300050F8041C41F4006140F8041C50F8040CFB
:1017400000F400600390039804B080BD41F21C00D7
:10175000C4F202000168002241F00101016000684A
:10176000002100F00100029002981C20FFF768FAA7
:101770001C20FFF761FA04B080BD41F21C00C4F2E6
:1017800002000168002241F00201016000680021AE
:1017900000F00200019001981D20FFF751FA1D2072
:1017A000FFF74AFA04B080BD70470000B0B50446A8
:1017B00041B1082909D0042914BF04F1410004F102
:1017C0003F0004E004F13E0001E004F14000007835
:1017D00001281CBF0120B0BD022041B1082909D059
:1017E000042914BF84F8410084F83F0004E084F821
:1017F0003E0001E084F84000206842F644450122A2
:10180000C4F2010500F064FB2068A5F144018842A0
:1018100003D1296841F40041296040F2FF71C4F20C
:101820000001884205DCB0F1804F0ED040F200414B
:1018300007E042F60041C4F20101884205D040F6BB
:101840000001C4F20001884206D1816801F007015D
:10185000062904BF0020B0BD016841F0010101600C
:101860000020B0BD7047000070470000FEE7000098
:10187000B0B584B040F2700042F200410024C2F2E0
:101880000000C4F201014FF4807201254FF460237F
:10189000C0E9001408210394CDE9014405730475DF
:1018A000C36182600161FEF73DFE002818BFFEF7AC
:1018B0002FFD40F27000C2F2000001A9CDE90155F0
:1018C0000394FEF72DFD002818BFFEF721FD02202E
:1018D000CDE9010040F27000C2F2000001A9FEF75C
:1018E0001FFD002818BFFEF713FD0320CDE90100FE
:1018F00040F27000C2F2000001A9FEF711FD0028BD
:1019000018BFFEF705FD0420CDE9010040F270008C
:10191000C2F2000001A9FEF703FD002818BFFEF780
:10192000F7FC0520CDE9010040F27000C2F2000092
:1019300001A9FEF7F5FC002818BFFEF7E9FC062018
:10194000CDE9010040F27000C2F2000001A9FEF7EB
:10195000E7FC002818BFFEF7DBFC0720CDE90100FB
:1019600040F27000C2F2000001A9FEF7D9FC002885
:1019700018BFFEF7CDFC0820CDE9010040F2700051
:10198000C2F2000001A9FEF7CBFC002818BFFEF749
:10199000BFFC04B0B0BD000080B582B041F21400BD
:1019A000C4F202000168002241F0010101600068F8
:1019B000002100F00100019001980B20FFF740F991
:1019C0000B20FFF739F902B080BD000070B586B07A
:1019D000002541F21800CDE90455CDE90255C4F2C5
:1019E0000200016840F6004441F004010160016812
:1019F000C4F2010401F0040101910199016800227F
:101A000041F008010160006840F6F64100F008006E
:101A100001900198204640F6F646FFF795F8012020
:101A2000CDE903050220059002A920460296FEF7A3
:101A30008DFF06B070BD000010B592B040F2E4001A
:101A400042F600410024C2F20000C4F201017F23EB
:101A50004FF0800C1194CDE90F44CDE90D44CDE950
:101A60000B44CDE90944CDE90744CDE90544CDE96E
:101A70000344CDE90144042280E81600C0E90334A0
:101A8000C0E9054CFFF710FE002818BFFEF740FC28
:101A900040F2E400C2F2000010A9CDE91044FFF7C3
:101AA00005FC002818BFFEF733FC602009900020D9
:101AB000CDE90A00CDE90C00CDE90E0040F2E400CA
:101AC000C2F2000009A90022FFF7A2FD002818BFFA
:101AD000FEF71EFC40F2E400C2F2000009A9042255
:101AE000FFF796FD002818BFFEF712FC40F2E40055
:101AF000C2F2000009A90822FFF78AFD002818BFDA
:101B0000FEF706FC40F2E400C2F2000009A90C2234
:101B1000FFF77EFD002818BFFEF7FAFB00200590B6
:101B2000CDE90300CDE901004FF40051089040F2E7
:101B3000E4000691C2F2000001A9FFF791FB002822
:101B400018BFFEF7E5FB40F2E400C2F20000FFF729
:101B5000B9FC12B010BD000010B58AB040F22C10D4
:101B6000C2F200004FF0804100243F2240F2E733F0
:101B700080E8160080210994CDE90744CDE90544A9
:101B8000CDE90344CDE90144C0E903348161FFF7A5
:101B90008BFD002818BFFEF7BBFB40F22C10C2F2F1
:101BA000000008A9CDE90844FFF780FB002818BF12
:101BB000FEF7AEFB602001900020CDE90200059009
:101BC00040F22C10C2F2000001A90022FFF720FD14
:101BD000002818BFFEF79CFB0AB010BD10B58AB0F4
:101BE00040F2741040F20041C2F20000C4F2000161
:101BF00000243F22632380E8160080210994CDE968
:101C00000744CDE90544CDE90344CDE90144C0E9E9
:101C100003348161FFF748FD002818BFFEF778FB09
:101C200040F27410C2F2000008A9CDE90844FFF7A1
:101C30003DFB002818BFFEF76BFB602001900020E1
:101C4000CDE90200059040F27410C2F2000001A933
:101C50000022FFF7DDFC002818BFFEF759FB0AB091
:101C600010BD000010B58AB040F2BC1040F6000173
:101C70000024C2F20000C4F2000101230994CDE95E
:101C80000744CDE90544CDE90344CDE901441F22D1
:101C900080E81600C0E903348461FFF769FC00287E
:101CA00018BFFEF735FB40F2BC10C2F2000008A9D5
:101CB000CDE90844FFF7FAFA002818BFFEF728FB21
:101CC0000020CDE901000390059040F2BC10C2F263
:101CD000000001A90022FFF721FC002818BFFEF731
:101CE00017FB0AB010BD0000FEE70000FEE7000091
:101CF00000F0070080F00703042B28BF04234FF0F7
:101D0000FF3C03380CFA03F338BF002099438140AD
:101D10000CFA00F022EA0000084370477047000008
:101D200081B040F20000C2F20000006844F6D351D6
:101D3000C1F26201A0FB0101480A009000BF0098B7
:101D4000411E00280091F9D101B070477047000092
:101D5000B0B501380024B4EB106F1CBF0120B0BD3A
:101D60004EF21005CEF2000568604FF0FF300F21F3
:101D700000F096F90720AC6028602046B0BD000056
:101D800080B5FEF7EDFE80BD70B594B00AAC20467C
:101D90002821FEF719FA01200E9010200F904FF421
:101DA000601000250226139020460995CDE90755BD
:101DB000CDE90555CDE90355CDE901550A96CDE9A3
:101DC0001165FFF7BFF8C0B90F20CDE905064FF444
:101DD0008060CDE9080505A802210795FEF7C8FF38
:101DE00058B9022001904FF40040039001A8FEF77B
:101DF0003BFF002804BF14B070BDFEF789FA000055
:101E00007047000080B540F22C10C2F20000FFF7CE
:101E1000BFFA80BD80B540F27410C2F20000FFF737
:101E2000B7FA80BD80B540F2BC10C2F20000FFF7E7
:101E3000AFFA80BD10B540F2FF7E0368C4F2000E19
:101E400042F6004C7045C4F2010C05DCB0F1804F45
:101E50000AD040F2004203E0604505D040F600029F
:101E6000C4F20002904203D14A6823F07003134386
:101E7000704505DCB0F1804F0AD040F2004203E02B
:101E8000604505D040F60002C4F20002904203D142
:101E9000CA6823F44073134323F080024B69D1F8DE
:101EA00000E08C681A4360450260C462C0F828E014
:101EB00002D10969CCF83010012141610169C907DB
:101EC00008BF10BD016921F00101016110BD0000D2
:101ED00080B501F01F014FF0010CD0F820E00CFAA2
:101EE00001F32EEA03030362036A02FA01F11943C4
:101EF000016280BDB0B5026A036A42F6004423F075
:101F000001030362D0F804E0D0F818C08B6822F017
:101F10000202C4F20104A04242EA030205D1CB68E6
:101F200022F00C0223F004031A430B68A04207D1ED
:101F3000D1E905452EF4407E44EA0E0444EA050E3C
:101F40002CF073052B43C0F804E0836149684163BA
:101F50000262B0BDB0B5026A036A42F6004423F0E3
:101F600010030362D0F804E0D0F818C08B6822F0A8
:101F70002002C4F20104A04242EA031207D1CB6856
:101F80006FF0400522F0C00205EA03131A430B6804
:101F9000A04207D1D1E905452EF4406E4EEA8404F3
:101FA00044EA850E2CF4E64545EA0323C0F804E034
:101FB0008361496881630262B0BD0000B0B5026A06
:101FC000036A42F6004423F480730362D0F804E00D
:101FD000D0F81CC08B6822F40072C4F20104A04245
:101FE00042EA032207D1CB6840F2FF451B0222F4EC
:101FF0004062AB431A430B68A04207D1D1E90545C3
:102000002EF4405E4EEA041444EA051E2CF07305DB
:102010002B43C0F804E0C3614968C1630262B0BDEC
:10202000B0B5D0F820C0026A42F6004522F48052D2
:1020300002624268C3690C68D1F808E0C4F2010585
:10204000A84204D14D6922F4804242EA851223F469
:10205000E64343EA04234260C3612CF40055496817
:1020600045EA0E3201640262B0BD0000FEE70000E6
:10207000002848BF704700F01F01012202FA01F159
:102080004EF200124009CEF2000242F820107047D2
:102090004EF60C50CEF200000068C0F302207047EC
:1020A0004EF6145300F00F02CEF2000309011A4459
:1020B00000F16043B0F1FF3FC8BF03F56442117007
:1020C000704700004EF60C51CEF200010A684FF640
:1020D000FF031A4060F30A2242F0806040F0FD7076
:1020E00008607047B0B540F600440425C4F201040E
:1020F000204610210122FEF727FD20462021012243
:10210000FEF722FD204640210122FEF71DFD20465C
:1021100080210122FEF718FDFA20FEF703FC20467D
:1021200010210022FEF710FD204620210022FEF79C
:102130000BFD204640210022FEF706FD20468021AF
:102140000022FEF701FDFA20FEF7ECFB013DCFD1A6
:10215000B0BD0000FEF712FDFFF716FEFFF736FCDC
:10216000FFF71AFCFFF784FBFFF766FCFFF7F4FCB0
:10217000FFF734FDFFF776FDFFF7B4FF40F2E4040C
:10218000C2F2000420463C21FFF710FB206840F615
:1021900000440021C4F2010401642046022100220F
:1021A000FEF7D2FC204604210022FEF7CDFC20469B
:1021B0004FF480610022FEF7C7FC20464FF4006117
:1021C0000022FEF7C1FC00F003F800BFFEE70000AC
:1021D00080B540F2E400C2F20000FFF7A3F840F23D
:1021E0002C10C2F20000FFF79DF840F27410C2F20A
:1021F0000000FFF797F840F2BC10C2F20000FFF7B2
:1022000091F880BD000000000000000001020304FE
:10221000060708093822000800000020100000000E
:10222000280100084822000810000020F8070000DC
:10223000440100080000000000127A0001000000C4
:08224000100000000000000086
:04000005080000ED02
:00000001FF
